{
  "address": "0x28fa9ac1d23Cc8333a9325708eAe926668DF7460",
  "abi": [
    {
      "inputs": [
        {
          "internalType": "address",
          "name": "vrfCoordinatorV2",
          "type": "address"
        },
        {
          "internalType": "bytes32",
          "name": "gasLane",
          "type": "bytes32"
        },
        {
          "internalType": "uint64",
          "name": "subscriptionId",
          "type": "uint64"
        },
        {
          "internalType": "uint32",
          "name": "callbackGasLimit",
          "type": "uint32"
        },
        {
          "internalType": "string[3]",
          "name": "dogTokenUris",
          "type": "string[3]"
        }
      ],
      "stateMutability": "nonpayable",
      "type": "constructor"
    },
    {
      "inputs": [
        {
          "internalType": "address",
          "name": "have",
          "type": "address"
        },
        {
          "internalType": "address",
          "name": "want",
          "type": "address"
        }
      ],
      "name": "OnlyCoordinatorCanFulfill",
      "type": "error"
    },
    {
      "anonymous": false,
      "inputs": [
        {
          "indexed": true,
          "internalType": "address",
          "name": "owner",
          "type": "address"
        },
        {
          "indexed": true,
          "internalType": "address",
          "name": "approved",
          "type": "address"
        },
        {
          "indexed": true,
          "internalType": "uint256",
          "name": "tokenId",
          "type": "uint256"
        }
      ],
      "name": "Approval",
      "type": "event"
    },
    {
      "anonymous": false,
      "inputs": [
        {
          "indexed": true,
          "internalType": "address",
          "name": "owner",
          "type": "address"
        },
        {
          "indexed": true,
          "internalType": "address",
          "name": "operator",
          "type": "address"
        },
        {
          "indexed": false,
          "internalType": "bool",
          "name": "approved",
          "type": "bool"
        }
      ],
      "name": "ApprovalForAll",
      "type": "event"
    },
    {
      "anonymous": false,
      "inputs": [
        {
          "indexed": true,
          "internalType": "address",
          "name": "from",
          "type": "address"
        },
        {
          "indexed": true,
          "internalType": "address",
          "name": "to",
          "type": "address"
        },
        {
          "indexed": true,
          "internalType": "uint256",
          "name": "tokenId",
          "type": "uint256"
        }
      ],
      "name": "Transfer",
      "type": "event"
    },
    {
      "inputs": [],
      "name": "MAX_CHANCE_VALUE",
      "outputs": [
        {
          "internalType": "uint256",
          "name": "",
          "type": "uint256"
        }
      ],
      "stateMutability": "view",
      "type": "function"
    },
    {
      "inputs": [],
      "name": "NUM_WORDS",
      "outputs": [
        {
          "internalType": "uint32",
          "name": "",
          "type": "uint32"
        }
      ],
      "stateMutability": "view",
      "type": "function"
    },
    {
      "inputs": [],
      "name": "REQUEST_CONFIRMATIONS",
      "outputs": [
        {
          "internalType": "uint16",
          "name": "",
          "type": "uint16"
        }
      ],
      "stateMutability": "view",
      "type": "function"
    },
    {
      "inputs": [
        {
          "internalType": "address",
          "name": "to",
          "type": "address"
        },
        {
          "internalType": "uint256",
          "name": "tokenId",
          "type": "uint256"
        }
      ],
      "name": "approve",
      "outputs": [],
      "stateMutability": "nonpayable",
      "type": "function"
    },
    {
      "inputs": [
        {
          "internalType": "address",
          "name": "owner",
          "type": "address"
        }
      ],
      "name": "balanceOf",
      "outputs": [
        {
          "internalType": "uint256",
          "name": "",
          "type": "uint256"
        }
      ],
      "stateMutability": "view",
      "type": "function"
    },
    {
      "inputs": [
        {
          "internalType": "uint256",
          "name": "tokenId",
          "type": "uint256"
        }
      ],
      "name": "getApproved",
      "outputs": [
        {
          "internalType": "address",
          "name": "",
          "type": "address"
        }
      ],
      "stateMutability": "view",
      "type": "function"
    },
    {
      "inputs": [
        {
          "internalType": "uint256",
          "name": "moddedRng",
          "type": "uint256"
        }
      ],
      "name": "getBreedFromModdedRng",
      "outputs": [
        {
          "internalType": "uint256",
          "name": "",
          "type": "uint256"
        }
      ],
      "stateMutability": "pure",
      "type": "function"
    },
    {
      "inputs": [],
      "name": "getChanceArray",
      "outputs": [
        {
          "internalType": "uint256[3]",
          "name": "",
          "type": "uint256[3]"
        }
      ],
      "stateMutability": "pure",
      "type": "function"
    },
    {
      "inputs": [],
      "name": "i_callbackGasLimit",
      "outputs": [
        {
          "internalType": "uint32",
          "name": "",
          "type": "uint32"
        }
      ],
      "stateMutability": "view",
      "type": "function"
    },
    {
      "inputs": [],
      "name": "i_gasLane",
      "outputs": [
        {
          "internalType": "bytes32",
          "name": "",
          "type": "bytes32"
        }
      ],
      "stateMutability": "view",
      "type": "function"
    },
    {
      "inputs": [],
      "name": "i_subscriptionId",
      "outputs": [
        {
          "internalType": "uint64",
          "name": "",
          "type": "uint64"
        }
      ],
      "stateMutability": "view",
      "type": "function"
    },
    {
      "inputs": [
        {
          "internalType": "address",
          "name": "owner",
          "type": "address"
        },
        {
          "internalType": "address",
          "name": "operator",
          "type": "address"
        }
      ],
      "name": "isApprovedForAll",
      "outputs": [
        {
          "internalType": "bool",
          "name": "",
          "type": "bool"
        }
      ],
      "stateMutability": "view",
      "type": "function"
    },
    {
      "inputs": [],
      "name": "name",
      "outputs": [
        {
          "internalType": "string",
          "name": "",
          "type": "string"
        }
      ],
      "stateMutability": "view",
      "type": "function"
    },
    {
      "inputs": [
        {
          "internalType": "uint256",
          "name": "tokenId",
          "type": "uint256"
        }
      ],
      "name": "ownerOf",
      "outputs": [
        {
          "internalType": "address",
          "name": "",
          "type": "address"
        }
      ],
      "stateMutability": "view",
      "type": "function"
    },
    {
      "inputs": [
        {
          "internalType": "uint256",
          "name": "requestId",
          "type": "uint256"
        },
        {
          "internalType": "uint256[]",
          "name": "randomWords",
          "type": "uint256[]"
        }
      ],
      "name": "rawFulfillRandomWords",
      "outputs": [],
      "stateMutability": "nonpayable",
      "type": "function"
    },
    {
      "inputs": [],
      "name": "requestDoggie",
      "outputs": [
        {
          "internalType": "uint256",
          "name": "requestId",
          "type": "uint256"
        }
      ],
      "stateMutability": "nonpayable",
      "type": "function"
    },
    {
      "inputs": [
        {
          "internalType": "uint256",
          "name": "",
          "type": "uint256"
        }
      ],
      "name": "s_requestIdToSender",
      "outputs": [
        {
          "internalType": "address",
          "name": "",
          "type": "address"
        }
      ],
      "stateMutability": "view",
      "type": "function"
    },
    {
      "inputs": [],
      "name": "s_tokenCounter",
      "outputs": [
        {
          "internalType": "uint256",
          "name": "",
          "type": "uint256"
        }
      ],
      "stateMutability": "view",
      "type": "function"
    },
    {
      "inputs": [
        {
          "internalType": "address",
          "name": "from",
          "type": "address"
        },
        {
          "internalType": "address",
          "name": "to",
          "type": "address"
        },
        {
          "internalType": "uint256",
          "name": "tokenId",
          "type": "uint256"
        }
      ],
      "name": "safeTransferFrom",
      "outputs": [],
      "stateMutability": "nonpayable",
      "type": "function"
    },
    {
      "inputs": [
        {
          "internalType": "address",
          "name": "from",
          "type": "address"
        },
        {
          "internalType": "address",
          "name": "to",
          "type": "address"
        },
        {
          "internalType": "uint256",
          "name": "tokenId",
          "type": "uint256"
        },
        {
          "internalType": "bytes",
          "name": "_data",
          "type": "bytes"
        }
      ],
      "name": "safeTransferFrom",
      "outputs": [],
      "stateMutability": "nonpayable",
      "type": "function"
    },
    {
      "inputs": [
        {
          "internalType": "address",
          "name": "operator",
          "type": "address"
        },
        {
          "internalType": "bool",
          "name": "approved",
          "type": "bool"
        }
      ],
      "name": "setApprovalForAll",
      "outputs": [],
      "stateMutability": "nonpayable",
      "type": "function"
    },
    {
      "inputs": [
        {
          "internalType": "bytes4",
          "name": "interfaceId",
          "type": "bytes4"
        }
      ],
      "name": "supportsInterface",
      "outputs": [
        {
          "internalType": "bool",
          "name": "",
          "type": "bool"
        }
      ],
      "stateMutability": "view",
      "type": "function"
    },
    {
      "inputs": [],
      "name": "symbol",
      "outputs": [
        {
          "internalType": "string",
          "name": "",
          "type": "string"
        }
      ],
      "stateMutability": "view",
      "type": "function"
    },
    {
      "inputs": [
        {
          "internalType": "uint256",
          "name": "tokenId",
          "type": "uint256"
        }
      ],
      "name": "tokenURI",
      "outputs": [
        {
          "internalType": "string",
          "name": "",
          "type": "string"
        }
      ],
      "stateMutability": "view",
      "type": "function"
    },
    {
      "inputs": [
        {
          "internalType": "address",
          "name": "from",
          "type": "address"
        },
        {
          "internalType": "address",
          "name": "to",
          "type": "address"
        },
        {
          "internalType": "uint256",
          "name": "tokenId",
          "type": "uint256"
        }
      ],
      "name": "transferFrom",
      "outputs": [],
      "stateMutability": "nonpayable",
      "type": "function"
    }
  ],
  "transactionHash": "0x2563ab894be63d1a0e7a13d3f06e3ff253a08a49c343667760a2530e1df73823",
  "args": [
    "0x6168499c0cFfCaCD319c818142124B7A15E857ab",
    "0xd89b2bf150e3b9e13446986e571fb9cab24b13cea0a43ea20a6049a85cc807cc",
    "3595",
    "500000",
    [
      "ipfs://QmaVkBn2tKmjbhphU7eyztbvSQU5EXDdqRyXZtRhSGgJGo",
      "ipfs://QmZYmH5iDbD6v3U2ixoVAjioSzvWJszDzYdbeCLquGSpVm",
      "ipfs://QmYQC5aGZu2PTH8XzbJrbDnvhj3gVs7ya33H9mqUNvST3d"
    ]
  ],
  "numDeployments": 4,
  "solcInputHash": "1b7a8c5531160deb3fc7e1fc333b8de4",
  "bytecode": "0x6101206040523480156200001257600080fd5b5060405162003dcf38038062003dcf8339818101604052810190620000389190620004c3565b846040518060400160405280600f81526020017f52616e646f6d2049504653204e465400000000000000000000000000000000008152506040518060400160405280600381526020017f52494e00000000000000000000000000000000000000000000000000000000008152508160009080519060200190620000bd929190620001ae565b508060019080519060200190620000d6929190620001ae565b5050508073ffffffffffffffffffffffffffffffffffffffff1660808173ffffffffffffffffffffffffffffffffffffffff1660601b81525050508473ffffffffffffffffffffffffffffffffffffffff1660a08173ffffffffffffffffffffffffffffffffffffffff1660601b815250508360c081815250508267ffffffffffffffff1660e08167ffffffffffffffff1660c01b815250508163ffffffff166101008163ffffffff1660e01b815250506000600b81905550806008906003620001a29291906200023f565b505050505050620007e6565b828054620001bc906200068a565b90600052602060002090601f016020900481019282620001e057600085556200022c565b82601f10620001fb57805160ff19168380011785556200022c565b828001600101855582156200022c579182015b828111156200022b5782518255916020019190600101906200020e565b5b5090506200023b919062000299565b5090565b826003810192821562000286579160200282015b828111156200028557825182908051906020019062000274929190620001ae565b509160200191906001019062000253565b5b509050620002959190620002b8565b5090565b5b80821115620002b45760008160009055506001016200029a565b5090565b5b80821115620002dc5760008181620002d29190620002e0565b50600101620002b9565b5090565b508054620002ee906200068a565b6000825580601f1062000302575062000323565b601f01602090049060005260206000209081019062000322919062000299565b5b50565b60006200033d620003378462000593565b6200056a565b905080828560208602820111156200035a576200035962000759565b5b60005b85811015620003af57815167ffffffffffffffff81111562000384576200038362000754565b5b80860162000393898262000462565b855260208501945060208401935050506001810190506200035d565b5050509392505050565b6000620003d0620003ca84620005bc565b6200056a565b905082815260208101848484011115620003ef57620003ee6200075e565b5b620003fc84828562000654565b509392505050565b60008151905062000415816200077e565b92915050565b600082601f83011262000433576200043262000754565b5b60036200044284828562000326565b91505092915050565b6000815190506200045c8162000798565b92915050565b600082601f8301126200047a576200047962000754565b5b81516200048c848260208601620003b9565b91505092915050565b600081519050620004a681620007b2565b92915050565b600081519050620004bd81620007cc565b92915050565b600080600080600060a08688031215620004e257620004e162000768565b5b6000620004f28882890162000404565b955050602062000505888289016200044b565b94505060406200051888828901620004ac565b93505060606200052b8882890162000495565b925050608086015167ffffffffffffffff8111156200054f576200054e62000763565b5b6200055d888289016200041b565b9150509295509295909350565b60006200057662000589565b9050620005848282620006c0565b919050565b6000604051905090565b600067ffffffffffffffff821115620005b157620005b062000725565b5b602082029050919050565b600067ffffffffffffffff821115620005da57620005d962000725565b5b620005e5826200076d565b9050602081019050919050565b6000620005ff8262000610565b9050919050565b6000819050919050565b600073ffffffffffffffffffffffffffffffffffffffff82169050919050565b600063ffffffff82169050919050565b600067ffffffffffffffff82169050919050565b60005b838110156200067457808201518184015260208101905062000657565b8381111562000684576000848401525b50505050565b60006002820490506001821680620006a357607f821691505b60208210811415620006ba57620006b9620006f6565b5b50919050565b620006cb826200076d565b810181811067ffffffffffffffff82111715620006ed57620006ec62000725565b5b80604052505050565b7f4e487b7100000000000000000000000000000000000000000000000000000000600052602260045260246000fd5b7f4e487b7100000000000000000000000000000000000000000000000000000000600052604160045260246000fd5b600080fd5b600080fd5b600080fd5b600080fd5b600080fd5b6000601f19601f8301169050919050565b6200078981620005f2565b81146200079557600080fd5b50565b620007a38162000606565b8114620007af57600080fd5b50565b620007bd8162000630565b8114620007c957600080fd5b50565b620007d78162000640565b8114620007e357600080fd5b50565b60805160601c60a05160601c60c05160e05160c01c6101005160e01c61357c62000853600039600081816108850152610fc70152600081816108620152610ab10152600081816108410152610c740152600061080501526000818161097101526109c5015261357c6000f3fe608060405234801561001057600080fd5b50600436106101735760003560e01c806367f082b0116100de578063a36f573b11610097578063c87b56dd11610071578063c87b56dd1461044e578063d757d0271461047e578063da1b9e291461049c578063e985e9c5146104ba57610173565b8063a36f573b146103d2578063a51cccf314610402578063b88d4fde1461043257610173565b806367f082b01461030e57806370a082311461032c57806372cf6e341461035c5780638e879c8a1461037a57806395d89b4114610398578063a22cb465146103b657610173565b80631fe543e3116101305780631fe543e31461024e57806323b872dd1461026a57806342842e0e14610286578063470cdf97146102a25780635dacf5f4146102c05780636352211e146102de57610173565b806301ffc9a71461017857806306fdde03146101a8578063081812fc146101c6578063095ea7b3146101f65780630b21a83b146102125780631801cc8a14610230575b600080fd5b610192600480360381019061018d919061232b565b6104ea565b60405161019f91906128c4565b60405180910390f35b6101b06105cc565b6040516101bd919061294d565b60405180910390f35b6101e060048036038101906101db9190612385565b61065e565b6040516101ed9190612819565b60405180910390f35b610210600480360381019061020b91906122eb565b6106e3565b005b61021a6107fb565b6040516102279190612b8a565b60405180910390f35b610238610801565b6040516102459190612b8a565b60405180910390f35b610268600480360381019061026391906123df565b61096f565b005b610284600480360381019061027f91906121d5565b610a2f565b005b6102a0600480360381019061029b91906121d5565b610a8f565b005b6102aa610aaf565b6040516102b79190612bc0565b60405180910390f35b6102c8610ad3565b6040516102d591906128a9565b60405180910390f35b6102f860048036038101906102f39190612385565b610afe565b6040516103059190612819565b60405180910390f35b610316610bb0565b6040516103239190612b6f565b60405180910390f35b61034660048036038101906103419190612168565b610bb5565b6040516103539190612b8a565b60405180910390f35b610364610c6d565b6040516103719190612ba5565b60405180910390f35b610382610c72565b60405161038f91906128df565b60405180910390f35b6103a0610c96565b6040516103ad919061294d565b60405180910390f35b6103d060048036038101906103cb91906122ab565b610d28565b005b6103ec60048036038101906103e79190612385565b610d3e565b6040516103f99190612819565b60405180910390f35b61041c60048036038101906104179190612385565b610d71565b6040516104299190612b8a565b60405180910390f35b61044c60048036038101906104479190612228565b610e11565b005b61046860048036038101906104639190612385565b610e73565b604051610475919061294d565b60405180910390f35b610486610fc5565b6040516104939190612ba5565b60405180910390f35b6104a4610fe9565b6040516104b19190612b8a565b60405180910390f35b6104d460048036038101906104cf9190612195565b610fee565b6040516104e191906128c4565b60405180910390f35b60007f80ac58cd000000000000000000000000000000000000000000000000000000007bffffffffffffffffffffffffffffffffffffffffffffffffffffffff1916827bffffffffffffffffffffffffffffffffffffffffffffffffffffffff191614806105b557507f5b5e139f000000000000000000000000000000000000000000000000000000007bffffffffffffffffffffffffffffffffffffffffffffffffffffffff1916827bffffffffffffffffffffffffffffffffffffffffffffffffffffffff1916145b806105c557506105c482611082565b5b9050919050565b6060600080546105db90612e7a565b80601f016020809104026020016040519081016040528092919081815260200182805461060790612e7a565b80156106545780601f1061062957610100808354040283529160200191610654565b820191906000526020600020905b81548152906001019060200180831161063757829003601f168201915b5050505050905090565b6000610669826110ec565b6106a8576040517f08c379a000000000000000000000000000000000000000000000000000000000815260040161069f90612aef565b60405180910390fd5b6004600083815260200190815260200160002060009054906101000a900473ffffffffffffffffffffffffffffffffffffffff169050919050565b60006106ee82610afe565b90508073ffffffffffffffffffffffffffffffffffffffff168373ffffffffffffffffffffffffffffffffffffffff16141561075f576040517f08c379a000000000000000000000000000000000000000000000000000000000815260040161075690612b2f565b60405180910390fd5b8073ffffffffffffffffffffffffffffffffffffffff1661077e611158565b73ffffffffffffffffffffffffffffffffffffffff1614806107ad57506107ac816107a7611158565b610fee565b5b6107ec576040517f08c379a00000000000000000000000000000000000000000000000000000000081526004016107e390612a2f565b60405180910390fd5b6107f68383611160565b505050565b600b5481565b60007f000000000000000000000000000000000000000000000000000000000000000073ffffffffffffffffffffffffffffffffffffffff16635d3b1d307f00000000000000000000000000000000000000000000000000000000000000007f000000000000000000000000000000000000000000000000000000000000000060037f000000000000000000000000000000000000000000000000000000000000000060016040518663ffffffff1660e01b81526004016108c69594939291906128fa565b602060405180830381600087803b1580156108e057600080fd5b505af11580156108f4573d6000803e3d6000fd5b505050506040513d601f19601f8201168201806040525081019061091891906123b2565b9050336007600083815260200190815260200160002060006101000a81548173ffffffffffffffffffffffffffffffffffffffff021916908373ffffffffffffffffffffffffffffffffffffffff16021790555090565b7f000000000000000000000000000000000000000000000000000000000000000073ffffffffffffffffffffffffffffffffffffffff163373ffffffffffffffffffffffffffffffffffffffff1614610a2157337f00000000000000000000000000000000000000000000000000000000000000006040517f1cf993f4000000000000000000000000000000000000000000000000000000008152600401610a18929190612834565b60405180910390fd5b610a2b8282611219565b5050565b610a40610a3a611158565b8261135f565b610a7f576040517f08c379a0000000000000000000000000000000000000000000000000000000008152600401610a7690612b4f565b60405180910390fd5b610a8a83838361143d565b505050565b610aaa83838360405180602001604052806000815250610e11565b505050565b7f000000000000000000000000000000000000000000000000000000000000000081565b610adb611f17565b6040518060600160405280600a8152602001601e81526020016064815250905090565b6000806002600084815260200190815260200160002060009054906101000a900473ffffffffffffffffffffffffffffffffffffffff169050600073ffffffffffffffffffffffffffffffffffffffff168173ffffffffffffffffffffffffffffffffffffffff161415610ba7576040517f08c379a0000000000000000000000000000000000000000000000000000000008152600401610b9e90612a6f565b60405180910390fd5b80915050919050565b600381565b60008073ffffffffffffffffffffffffffffffffffffffff168273ffffffffffffffffffffffffffffffffffffffff161415610c26576040517f08c379a0000000000000000000000000000000000000000000000000000000008152600401610c1d90612a4f565b60405180910390fd5b600360008373ffffffffffffffffffffffffffffffffffffffff1673ffffffffffffffffffffffffffffffffffffffff168152602001908152602001600020549050919050565b600181565b7f000000000000000000000000000000000000000000000000000000000000000081565b606060018054610ca590612e7a565b80601f0160208091040260200160405190810160405280929190818152602001828054610cd190612e7a565b8015610d1e5780601f10610cf357610100808354040283529160200191610d1e565b820191906000526020600020905b815481529060010190602001808311610d0157829003601f168201915b5050505050905090565b610d3a610d33611158565b83836116a4565b5050565b60076020528060005260406000206000915054906101000a900473ffffffffffffffffffffffffffffffffffffffff1681565b600080600090506000610d82610ad3565b905060005b6003811015610e08578285118015610dc05750818160038110610dad57610dac612fe4565b5b602002015183610dbd9190612ccd565b85105b15610dd057809350505050610e0c565b818160038110610de357610de2612fe4565b5b602002015183610df39190612ccd565b92508080610e0090612edd565b915050610d87565b5050505b919050565b610e22610e1c611158565b8361135f565b610e61576040517f08c379a0000000000000000000000000000000000000000000000000000000008152600401610e5890612b4f565b60405180910390fd5b610e6d84848484611811565b50505050565b6060610e7e826110ec565b610ebd576040517f08c379a0000000000000000000000000000000000000000000000000000000008152600401610eb490612acf565b60405180910390fd5b6000600660008481526020019081526020016000208054610edd90612e7a565b80601f0160208091040260200160405190810160405280929190818152602001828054610f0990612e7a565b8015610f565780601f10610f2b57610100808354040283529160200191610f56565b820191906000526020600020905b815481529060010190602001808311610f3957829003601f168201915b505050505090506000610f6761186d565b9050600081511415610f7d578192505050610fc0565b600082511115610fb2578082604051602001610f9a9291906127f5565b60405160208183030381529060405292505050610fc0565b610fbb84611884565b925050505b919050565b7f000000000000000000000000000000000000000000000000000000000000000081565b606481565b6000600560008473ffffffffffffffffffffffffffffffffffffffff1673ffffffffffffffffffffffffffffffffffffffff16815260200190815260200160002060008373ffffffffffffffffffffffffffffffffffffffff1673ffffffffffffffffffffffffffffffffffffffff16815260200190815260200160002060009054906101000a900460ff16905092915050565b60007f01ffc9a7000000000000000000000000000000000000000000000000000000007bffffffffffffffffffffffffffffffffffffffffffffffffffffffff1916827bffffffffffffffffffffffffffffffffffffffffffffffffffffffff1916149050919050565b60008073ffffffffffffffffffffffffffffffffffffffff166002600084815260200190815260200160002060009054906101000a900473ffffffffffffffffffffffffffffffffffffffff1673ffffffffffffffffffffffffffffffffffffffff1614159050919050565b600033905090565b816004600083815260200190815260200160002060006101000a81548173ffffffffffffffffffffffffffffffffffffffff021916908373ffffffffffffffffffffffffffffffffffffffff160217905550808273ffffffffffffffffffffffffffffffffffffffff166111d383610afe565b73ffffffffffffffffffffffffffffffffffffffff167f8c5be1e5ebec7d5bd14f71427d1e84f3dd0314c0f7b2291e5b200ac8c7c3b92560405160405180910390a45050565b60006007600084815260200190815260200160002060009054906101000a900473ffffffffffffffffffffffffffffffffffffffff1690506000600b5490506001600b546112679190612ccd565b600b81905550600060648460008151811061128557611284612fe4565b5b60200260200101516112979190612f26565b905060006112a482610d71565b90506112b0848461192b565b61135783600883600381106112c8576112c7612fe4565b5b0180546112d490612e7a565b80601f016020809104026020016040519081016040528092919081815260200182805461130090612e7a565b801561134d5780601f106113225761010080835404028352916020019161134d565b820191906000526020600020905b81548152906001019060200180831161133057829003601f168201915b5050505050611949565b505050505050565b600061136a826110ec565b6113a9576040517f08c379a00000000000000000000000000000000000000000000000000000000081526004016113a090612a0f565b60405180910390fd5b60006113b483610afe565b90508073ffffffffffffffffffffffffffffffffffffffff168473ffffffffffffffffffffffffffffffffffffffff1614806113f657506113f58185610fee565b5b8061143457508373ffffffffffffffffffffffffffffffffffffffff1661141c8461065e565b73ffffffffffffffffffffffffffffffffffffffff16145b91505092915050565b8273ffffffffffffffffffffffffffffffffffffffff1661145d82610afe565b73ffffffffffffffffffffffffffffffffffffffff16146114b3576040517f08c379a00000000000000000000000000000000000000000000000000000000081526004016114aa9061298f565b60405180910390fd5b600073ffffffffffffffffffffffffffffffffffffffff168273ffffffffffffffffffffffffffffffffffffffff161415611523576040517f08c379a000000000000000000000000000000000000000000000000000000000815260040161151a906129cf565b60405180910390fd5b61152e8383836119bd565b611539600082611160565b6001600360008573ffffffffffffffffffffffffffffffffffffffff1673ffffffffffffffffffffffffffffffffffffffff16815260200190815260200160002060008282546115899190612d54565b925050819055506001600360008473ffffffffffffffffffffffffffffffffffffffff1673ffffffffffffffffffffffffffffffffffffffff16815260200190815260200160002060008282546115e09190612ccd565b92505081905550816002600083815260200190815260200160002060006101000a81548173ffffffffffffffffffffffffffffffffffffffff021916908373ffffffffffffffffffffffffffffffffffffffff160217905550808273ffffffffffffffffffffffffffffffffffffffff168473ffffffffffffffffffffffffffffffffffffffff167fddf252ad1be2c89b69c2b068fc378daa952ba7f163c4a11628f55a4df523b3ef60405160405180910390a461169f8383836119c2565b505050565b8173ffffffffffffffffffffffffffffffffffffffff168373ffffffffffffffffffffffffffffffffffffffff161415611713576040517f08c379a000000000000000000000000000000000000000000000000000000000815260040161170a906129ef565b60405180910390fd5b80600560008573ffffffffffffffffffffffffffffffffffffffff1673ffffffffffffffffffffffffffffffffffffffff16815260200190815260200160002060008473ffffffffffffffffffffffffffffffffffffffff1673ffffffffffffffffffffffffffffffffffffffff16815260200190815260200160002060006101000a81548160ff0219169083151502179055508173ffffffffffffffffffffffffffffffffffffffff168373ffffffffffffffffffffffffffffffffffffffff167f17307eab39ab6107e8899845ad3d59bd9653f200f220920489ca2b5937696c318360405161180491906128c4565b60405180910390a3505050565b61181c84848461143d565b611828848484846119c7565b611867576040517f08c379a000000000000000000000000000000000000000000000000000000000815260040161185e9061296f565b60405180910390fd5b50505050565b606060405180602001604052806000815250905090565b606061188f826110ec565b6118ce576040517f08c379a00000000000000000000000000000000000000000000000000000000081526004016118c590612b0f565b60405180910390fd5b60006118d861186d565b905060008151116118f85760405180602001604052806000815250611923565b8061190284611b5e565b6040516020016119139291906127f5565b6040516020818303038152906040525b915050919050565b611945828260405180602001604052806000815250611cbf565b5050565b611952826110ec565b611991576040517f08c379a000000000000000000000000000000000000000000000000000000000815260040161198890612a8f565b60405180910390fd5b806006600084815260200190815260200160002090805190602001906119b8929190611f39565b505050565b505050565b505050565b60006119e88473ffffffffffffffffffffffffffffffffffffffff16611d1a565b15611b51578373ffffffffffffffffffffffffffffffffffffffff1663150b7a02611a11611158565b8786866040518563ffffffff1660e01b8152600401611a33949392919061285d565b602060405180830381600087803b158015611a4d57600080fd5b505af1925050508015611a7e57506040513d601f19601f82011682018060405250810190611a7b9190612358565b60015b611b01573d8060008114611aae576040519150601f19603f3d011682016040523d82523d6000602084013e611ab3565b606091505b50600081511415611af9576040517f08c379a0000000000000000000000000000000000000000000000000000000008152600401611af09061296f565b60405180910390fd5b805181602001fd5b63150b7a0260e01b7bffffffffffffffffffffffffffffffffffffffffffffffffffffffff1916817bffffffffffffffffffffffffffffffffffffffffffffffffffffffff191614915050611b56565b600190505b949350505050565b60606000821415611ba6576040518060400160405280600181526020017f30000000000000000000000000000000000000000000000000000000000000008152509050611cba565b600082905060005b60008214611bd8578080611bc190612edd565b915050600a82611bd19190612d23565b9150611bae565b60008167ffffffffffffffff811115611bf457611bf3613013565b5b6040519080825280601f01601f191660200182016040528015611c265781602001600182028036833780820191505090505b5090505b60008514611cb357600182611c3f9190612d54565b9150600a85611c4e9190612f26565b6030611c5a9190612ccd565b60f81b818381518110611c7057611c6f612fe4565b5b60200101907effffffffffffffffffffffffffffffffffffffffffffffffffffffffffffff1916908160001a905350600a85611cac9190612d23565b9450611c2a565b8093505050505b919050565b611cc98383611d3d565b611cd660008484846119c7565b611d15576040517f08c379a0000000000000000000000000000000000000000000000000000000008152600401611d0c9061296f565b60405180910390fd5b505050565b6000808273ffffffffffffffffffffffffffffffffffffffff163b119050919050565b600073ffffffffffffffffffffffffffffffffffffffff168273ffffffffffffffffffffffffffffffffffffffff161415611dad576040517f08c379a0000000000000000000000000000000000000000000000000000000008152600401611da490612aaf565b60405180910390fd5b611db6816110ec565b15611df6576040517f08c379a0000000000000000000000000000000000000000000000000000000008152600401611ded906129af565b60405180910390fd5b611e02600083836119bd565b6001600360008473ffffffffffffffffffffffffffffffffffffffff1673ffffffffffffffffffffffffffffffffffffffff1681526020019081526020016000206000828254611e529190612ccd565b92505081905550816002600083815260200190815260200160002060006101000a81548173ffffffffffffffffffffffffffffffffffffffff021916908373ffffffffffffffffffffffffffffffffffffffff160217905550808273ffffffffffffffffffffffffffffffffffffffff16600073ffffffffffffffffffffffffffffffffffffffff167fddf252ad1be2c89b69c2b068fc378daa952ba7f163c4a11628f55a4df523b3ef60405160405180910390a4611f13600083836119c2565b5050565b6040518060600160405280600390602082028036833780820191505090505090565b828054611f4590612e7a565b90600052602060002090601f016020900481019282611f675760008555611fae565b82601f10611f8057805160ff1916838001178555611fae565b82800160010185558215611fae579182015b82811115611fad578251825591602001919060010190611f92565b5b509050611fbb9190611fbf565b5090565b5b80821115611fd8576000816000905550600101611fc0565b5090565b6000611fef611fea84612c00565b612bdb565b9050808382526020820190508285602086028201111561201257612011613047565b5b60005b858110156120425781612028888261213e565b845260208401935060208301925050600181019050612015565b5050509392505050565b600061205f61205a84612c2c565b612bdb565b90508281526020810184848401111561207b5761207a61304c565b5b612086848285612e38565b509392505050565b60008135905061209d816134ea565b92915050565b600082601f8301126120b8576120b7613042565b5b81356120c8848260208601611fdc565b91505092915050565b6000813590506120e081613501565b92915050565b6000813590506120f581613518565b92915050565b60008151905061210a81613518565b92915050565b600082601f83011261212557612124613042565b5b813561213584826020860161204c565b91505092915050565b60008135905061214d8161352f565b92915050565b6000815190506121628161352f565b92915050565b60006020828403121561217e5761217d613056565b5b600061218c8482850161208e565b91505092915050565b600080604083850312156121ac576121ab613056565b5b60006121ba8582860161208e565b92505060206121cb8582860161208e565b9150509250929050565b6000806000606084860312156121ee576121ed613056565b5b60006121fc8682870161208e565b935050602061220d8682870161208e565b925050604061221e8682870161213e565b9150509250925092565b6000806000806080858703121561224257612241613056565b5b60006122508782880161208e565b94505060206122618782880161208e565b93505060406122728782880161213e565b925050606085013567ffffffffffffffff81111561229357612292613051565b5b61229f87828801612110565b91505092959194509250565b600080604083850312156122c2576122c1613056565b5b60006122d08582860161208e565b92505060206122e1858286016120d1565b9150509250929050565b6000806040838503121561230257612301613056565b5b60006123108582860161208e565b92505060206123218582860161213e565b9150509250929050565b60006020828403121561234157612340613056565b5b600061234f848285016120e6565b91505092915050565b60006020828403121561236e5761236d613056565b5b600061237c848285016120fb565b91505092915050565b60006020828403121561239b5761239a613056565b5b60006123a98482850161213e565b91505092915050565b6000602082840312156123c8576123c7613056565b5b60006123d684828501612153565b91505092915050565b600080604083850312156123f6576123f5613056565b5b60006124048582860161213e565b925050602083013567ffffffffffffffff81111561242557612424613051565b5b612431858286016120a3565b9150509250929050565b600061244783836127b9565b60208301905092915050565b61245c81612d88565b82525050565b61246b81612c67565b6124758184612c95565b925061248082612c5d565b8060005b838110156124b1578151612498878261243b565b96506124a383612c88565b925050600181019050612484565b505050505050565b6124c281612d9a565b82525050565b6124d181612da6565b82525050565b60006124e282612c72565b6124ec8185612ca0565b93506124fc818560208601612e47565b6125058161305b565b840191505092915050565b600061251b82612c7d565b6125258185612cb1565b9350612535818560208601612e47565b61253e8161305b565b840191505092915050565b600061255482612c7d565b61255e8185612cc2565b935061256e818560208601612e47565b80840191505092915050565b6000612587603283612cb1565b91506125928261306c565b604082019050919050565b60006125aa602583612cb1565b91506125b5826130bb565b604082019050919050565b60006125cd601c83612cb1565b91506125d88261310a565b602082019050919050565b60006125f0602483612cb1565b91506125fb82613133565b604082019050919050565b6000612613601983612cb1565b915061261e82613182565b602082019050919050565b6000612636602c83612cb1565b9150612641826131ab565b604082019050919050565b6000612659603883612cb1565b9150612664826131fa565b604082019050919050565b600061267c602a83612cb1565b915061268782613249565b604082019050919050565b600061269f602983612cb1565b91506126aa82613298565b604082019050919050565b60006126c2602e83612cb1565b91506126cd826132e7565b604082019050919050565b60006126e5602083612cb1565b91506126f082613336565b602082019050919050565b6000612708603183612cb1565b91506127138261335f565b604082019050919050565b600061272b602c83612cb1565b9150612736826133ae565b604082019050919050565b600061274e602f83612cb1565b9150612759826133fd565b604082019050919050565b6000612771602183612cb1565b915061277c8261344c565b604082019050919050565b6000612794603183612cb1565b915061279f8261349b565b604082019050919050565b6127b381612ddc565b82525050565b6127c281612e0a565b82525050565b6127d181612e0a565b82525050565b6127e081612e14565b82525050565b6127ef81612e24565b82525050565b60006128018285612549565b915061280d8284612549565b91508190509392505050565b600060208201905061282e6000830184612453565b92915050565b60006040820190506128496000830185612453565b6128566020830184612453565b9392505050565b60006080820190506128726000830187612453565b61287f6020830186612453565b61288c60408301856127c8565b818103606083015261289e81846124d7565b905095945050505050565b60006060820190506128be6000830184612462565b92915050565b60006020820190506128d960008301846124b9565b92915050565b60006020820190506128f460008301846124c8565b92915050565b600060a08201905061290f60008301886124c8565b61291c60208301876127e6565b61292960408301866127aa565b61293660608301856127d7565b61294360808301846127d7565b9695505050505050565b600060208201905081810360008301526129678184612510565b905092915050565b600060208201905081810360008301526129888161257a565b9050919050565b600060208201905081810360008301526129a88161259d565b9050919050565b600060208201905081810360008301526129c8816125c0565b9050919050565b600060208201905081810360008301526129e8816125e3565b9050919050565b60006020820190508181036000830152612a0881612606565b9050919050565b60006020820190508181036000830152612a2881612629565b9050919050565b60006020820190508181036000830152612a488161264c565b9050919050565b60006020820190508181036000830152612a688161266f565b9050919050565b60006020820190508181036000830152612a8881612692565b9050919050565b60006020820190508181036000830152612aa8816126b5565b9050919050565b60006020820190508181036000830152612ac8816126d8565b9050919050565b60006020820190508181036000830152612ae8816126fb565b9050919050565b60006020820190508181036000830152612b088161271e565b9050919050565b60006020820190508181036000830152612b2881612741565b9050919050565b60006020820190508181036000830152612b4881612764565b9050919050565b60006020820190508181036000830152612b6881612787565b9050919050565b6000602082019050612b8460008301846127aa565b92915050565b6000602082019050612b9f60008301846127c8565b92915050565b6000602082019050612bba60008301846127d7565b92915050565b6000602082019050612bd560008301846127e6565b92915050565b6000612be5612bf6565b9050612bf18282612eac565b919050565b6000604051905090565b600067ffffffffffffffff821115612c1b57612c1a613013565b5b602082029050602081019050919050565b600067ffffffffffffffff821115612c4757612c46613013565b5b612c508261305b565b9050602081019050919050565b6000819050919050565b600060039050919050565b600081519050919050565b600081519050919050565b6000602082019050919050565b600081905092915050565b600082825260208201905092915050565b600082825260208201905092915050565b600081905092915050565b6000612cd882612e0a565b9150612ce383612e0a565b9250827fffffffffffffffffffffffffffffffffffffffffffffffffffffffffffffffff03821115612d1857612d17612f57565b5b828201905092915050565b6000612d2e82612e0a565b9150612d3983612e0a565b925082612d4957612d48612f86565b5b828204905092915050565b6000612d5f82612e0a565b9150612d6a83612e0a565b925082821015612d7d57612d7c612f57565b5b828203905092915050565b6000612d9382612dea565b9050919050565b60008115159050919050565b6000819050919050565b60007fffffffff0000000000000000000000000000000000000000000000000000000082169050919050565b600061ffff82169050919050565b600073ffffffffffffffffffffffffffffffffffffffff82169050919050565b6000819050919050565b600063ffffffff82169050919050565b600067ffffffffffffffff82169050919050565b82818337600083830152505050565b60005b83811015612e65578082015181840152602081019050612e4a565b83811115612e74576000848401525b50505050565b60006002820490506001821680612e9257607f821691505b60208210811415612ea657612ea5612fb5565b5b50919050565b612eb58261305b565b810181811067ffffffffffffffff82111715612ed457612ed3613013565b5b80604052505050565b6000612ee882612e0a565b91507fffffffffffffffffffffffffffffffffffffffffffffffffffffffffffffffff821415612f1b57612f1a612f57565b5b600182019050919050565b6000612f3182612e0a565b9150612f3c83612e0a565b925082612f4c57612f4b612f86565b5b828206905092915050565b7f4e487b7100000000000000000000000000000000000000000000000000000000600052601160045260246000fd5b7f4e487b7100000000000000000000000000000000000000000000000000000000600052601260045260246000fd5b7f4e487b7100000000000000000000000000000000000000000000000000000000600052602260045260246000fd5b7f4e487b7100000000000000000000000000000000000000000000000000000000600052603260045260246000fd5b7f4e487b7100000000000000000000000000000000000000000000000000000000600052604160045260246000fd5b600080fd5b600080fd5b600080fd5b600080fd5b600080fd5b6000601f19601f8301169050919050565b7f4552433732313a207472616e7366657220746f206e6f6e20455243373231526560008201527f63656976657220696d706c656d656e7465720000000000000000000000000000602082015250565b7f4552433732313a207472616e736665722066726f6d20696e636f72726563742060008201527f6f776e6572000000000000000000000000000000000000000000000000000000602082015250565b7f4552433732313a20746f6b656e20616c7265616479206d696e74656400000000600082015250565b7f4552433732313a207472616e7366657220746f20746865207a65726f2061646460008201527f7265737300000000000000000000000000000000000000000000000000000000602082015250565b7f4552433732313a20617070726f766520746f2063616c6c657200000000000000600082015250565b7f4552433732313a206f70657261746f7220717565727920666f72206e6f6e657860008201527f697374656e7420746f6b656e0000000000000000000000000000000000000000602082015250565b7f4552433732313a20617070726f76652063616c6c6572206973206e6f74206f7760008201527f6e6572206e6f7220617070726f76656420666f7220616c6c0000000000000000602082015250565b7f4552433732313a2062616c616e636520717565727920666f7220746865207a6560008201527f726f206164647265737300000000000000000000000000000000000000000000602082015250565b7f4552433732313a206f776e657220717565727920666f72206e6f6e657869737460008201527f656e7420746f6b656e0000000000000000000000000000000000000000000000602082015250565b7f45524337323155524953746f726167653a2055524920736574206f66206e6f6e60008201527f6578697374656e7420746f6b656e000000000000000000000000000000000000602082015250565b7f4552433732313a206d696e7420746f20746865207a65726f2061646472657373600082015250565b7f45524337323155524953746f726167653a2055524920717565727920666f722060008201527f6e6f6e6578697374656e7420746f6b656e000000000000000000000000000000602082015250565b7f4552433732313a20617070726f76656420717565727920666f72206e6f6e657860008201527f697374656e7420746f6b656e0000000000000000000000000000000000000000602082015250565b7f4552433732314d657461646174613a2055524920717565727920666f72206e6f60008201527f6e6578697374656e7420746f6b656e0000000000000000000000000000000000602082015250565b7f4552433732313a20617070726f76616c20746f2063757272656e74206f776e6560008201527f7200000000000000000000000000000000000000000000000000000000000000602082015250565b7f4552433732313a207472616e736665722063616c6c6572206973206e6f74206f60008201527f776e6572206e6f7220617070726f766564000000000000000000000000000000602082015250565b6134f381612d88565b81146134fe57600080fd5b50565b61350a81612d9a565b811461351557600080fd5b50565b61352181612db0565b811461352c57600080fd5b50565b61353881612e0a565b811461354357600080fd5b5056fea26469706673582212206c4fb0486bb1837f901b52162887d800ed9a0fb2d8ea7736e682e20ba33706a464736f6c63430008070033",
  "devdoc": {
    "kind": "dev",
    "methods": {
      "approve(address,uint256)": {
        "details": "See {IERC721-approve}."
      },
      "balanceOf(address)": {
        "details": "See {IERC721-balanceOf}."
      },
      "constructor": {
        "details": " - We are going to use VRFrequestRandomWords() function from Chainlink VRF so we need to define each parameter that function uses in our contract constructor"
      },
      "getApproved(uint256)": {
        "details": "See {IERC721-getApproved}."
      },
      "getBreedFromModdedRng(uint256)": {
        "details": " - 0-9: st.bernard - 10-29: pug - 30 - 99: shiba "
      },
      "isApprovedForAll(address,address)": {
        "details": "See {IERC721-isApprovedForAll}."
      },
      "name()": {
        "details": "See {IERC721Metadata-name}."
      },
      "ownerOf(uint256)": {
        "details": "See {IERC721-ownerOf}."
      },
      "safeTransferFrom(address,address,uint256)": {
        "details": "See {IERC721-safeTransferFrom}."
      },
      "safeTransferFrom(address,address,uint256,bytes)": {
        "details": "See {IERC721-safeTransferFrom}."
      },
      "setApprovalForAll(address,bool)": {
        "details": "See {IERC721-setApprovalForAll}."
      },
      "supportsInterface(bytes4)": {
        "details": "See {IERC165-supportsInterface}."
      },
      "symbol()": {
        "details": "See {IERC721Metadata-symbol}."
      },
      "tokenURI(uint256)": {
        "details": "See {IERC721Metadata-tokenURI}."
      },
      "transferFrom(address,address,uint256)": {
        "details": "See {IERC721-transferFrom}."
      }
    },
    "version": 1
  },
  "userdoc": {
    "kind": "user",
    "methods": {
      "getBreedFromModdedRng(uint256)": {
        "notice": "Function to decide puppy breed randomly"
      },
      "requestDoggie()": {
        "notice": "Mint a random puppy (get random number) -> use Chainlink VRF -> call requestRandomWords() function"
      }
    },
    "version": 1
  },
  "storageLayout": {
    "storage": [
      {
        "astId": 172,
        "contract": "contracts/RandomIpfsNft.sol:RandomIpfsNft",
        "label": "_name",
        "offset": 0,
        "slot": "0",
        "type": "t_string_storage"
      },
      {
        "astId": 174,
        "contract": "contracts/RandomIpfsNft.sol:RandomIpfsNft",
        "label": "_symbol",
        "offset": 0,
        "slot": "1",
        "type": "t_string_storage"
      },
      {
        "astId": 178,
        "contract": "contracts/RandomIpfsNft.sol:RandomIpfsNft",
        "label": "_owners",
        "offset": 0,
        "slot": "2",
        "type": "t_mapping(t_uint256,t_address)"
      },
      {
        "astId": 182,
        "contract": "contracts/RandomIpfsNft.sol:RandomIpfsNft",
        "label": "_balances",
        "offset": 0,
        "slot": "3",
        "type": "t_mapping(t_address,t_uint256)"
      },
      {
        "astId": 186,
        "contract": "contracts/RandomIpfsNft.sol:RandomIpfsNft",
        "label": "_tokenApprovals",
        "offset": 0,
        "slot": "4",
        "type": "t_mapping(t_uint256,t_address)"
      },
      {
        "astId": 192,
        "contract": "contracts/RandomIpfsNft.sol:RandomIpfsNft",
        "label": "_operatorApprovals",
        "offset": 0,
        "slot": "5",
        "type": "t_mapping(t_address,t_mapping(t_address,t_bool))"
      },
      {
        "astId": 1159,
        "contract": "contracts/RandomIpfsNft.sol:RandomIpfsNft",
        "label": "_tokenURIs",
        "offset": 0,
        "slot": "6",
        "type": "t_mapping(t_uint256,t_string_storage)"
      },
      {
        "astId": 1888,
        "contract": "contracts/RandomIpfsNft.sol:RandomIpfsNft",
        "label": "s_requestIdToSender",
        "offset": 0,
        "slot": "7",
        "type": "t_mapping(t_uint256,t_address)"
      },
      {
        "astId": 1892,
        "contract": "contracts/RandomIpfsNft.sol:RandomIpfsNft",
        "label": "s_dogTokenUris",
        "offset": 0,
        "slot": "8",
        "type": "t_array(t_string_storage)3_storage"
      },
      {
        "astId": 1894,
        "contract": "contracts/RandomIpfsNft.sol:RandomIpfsNft",
        "label": "s_tokenCounter",
        "offset": 0,
        "slot": "11",
        "type": "t_uint256"
      }
    ],
    "types": {
      "t_address": {
        "encoding": "inplace",
        "label": "address",
        "numberOfBytes": "20"
      },
      "t_array(t_string_storage)3_storage": {
        "base": "t_string_storage",
        "encoding": "inplace",
        "label": "string[3]",
        "numberOfBytes": "96"
      },
      "t_bool": {
        "encoding": "inplace",
        "label": "bool",
        "numberOfBytes": "1"
      },
      "t_mapping(t_address,t_bool)": {
        "encoding": "mapping",
        "key": "t_address",
        "label": "mapping(address => bool)",
        "numberOfBytes": "32",
        "value": "t_bool"
      },
      "t_mapping(t_address,t_mapping(t_address,t_bool))": {
        "encoding": "mapping",
        "key": "t_address",
        "label": "mapping(address => mapping(address => bool))",
        "numberOfBytes": "32",
        "value": "t_mapping(t_address,t_bool)"
      },
      "t_mapping(t_address,t_uint256)": {
        "encoding": "mapping",
        "key": "t_address",
        "label": "mapping(address => uint256)",
        "numberOfBytes": "32",
        "value": "t_uint256"
      },
      "t_mapping(t_uint256,t_address)": {
        "encoding": "mapping",
        "key": "t_uint256",
        "label": "mapping(uint256 => address)",
        "numberOfBytes": "32",
        "value": "t_address"
      },
      "t_mapping(t_uint256,t_string_storage)": {
        "encoding": "mapping",
        "key": "t_uint256",
        "label": "mapping(uint256 => string)",
        "numberOfBytes": "32",
        "value": "t_string_storage"
      },
      "t_string_storage": {
        "encoding": "bytes",
        "label": "string",
        "numberOfBytes": "32"
      },
      "t_uint256": {
        "encoding": "inplace",
        "label": "uint256",
        "numberOfBytes": "32"
      }
    }
  }
}