{
  "address": "0x548F1f9e173757BcdD094F9d6c5a1cac71651202",
  "abi": [
    {
      "inputs": [
        {
          "internalType": "address",
          "name": "vrfCoordinatorV2",
          "type": "address"
        },
        {
          "internalType": "bytes32",
          "name": "gasLane",
          "type": "bytes32"
        },
        {
          "internalType": "uint64",
          "name": "subscriptionId",
          "type": "uint64"
        },
        {
          "internalType": "uint32",
          "name": "callbackGasLimit",
          "type": "uint32"
        },
        {
          "internalType": "string[3]",
          "name": "dogTokenUris",
          "type": "string[3]"
        }
      ],
      "stateMutability": "nonpayable",
      "type": "constructor"
    },
    {
      "inputs": [
        {
          "internalType": "address",
          "name": "have",
          "type": "address"
        },
        {
          "internalType": "address",
          "name": "want",
          "type": "address"
        }
      ],
      "name": "OnlyCoordinatorCanFulfill",
      "type": "error"
    },
    {
      "anonymous": false,
      "inputs": [
        {
          "indexed": true,
          "internalType": "address",
          "name": "owner",
          "type": "address"
        },
        {
          "indexed": true,
          "internalType": "address",
          "name": "approved",
          "type": "address"
        },
        {
          "indexed": true,
          "internalType": "uint256",
          "name": "tokenId",
          "type": "uint256"
        }
      ],
      "name": "Approval",
      "type": "event"
    },
    {
      "anonymous": false,
      "inputs": [
        {
          "indexed": true,
          "internalType": "address",
          "name": "owner",
          "type": "address"
        },
        {
          "indexed": true,
          "internalType": "address",
          "name": "operator",
          "type": "address"
        },
        {
          "indexed": false,
          "internalType": "bool",
          "name": "approved",
          "type": "bool"
        }
      ],
      "name": "ApprovalForAll",
      "type": "event"
    },
    {
      "anonymous": false,
      "inputs": [
        {
          "indexed": true,
          "internalType": "address",
          "name": "from",
          "type": "address"
        },
        {
          "indexed": true,
          "internalType": "address",
          "name": "to",
          "type": "address"
        },
        {
          "indexed": true,
          "internalType": "uint256",
          "name": "tokenId",
          "type": "uint256"
        }
      ],
      "name": "Transfer",
      "type": "event"
    },
    {
      "inputs": [],
      "name": "MAX_CHANCE_VALUE",
      "outputs": [
        {
          "internalType": "uint256",
          "name": "",
          "type": "uint256"
        }
      ],
      "stateMutability": "view",
      "type": "function"
    },
    {
      "inputs": [],
      "name": "NUM_WORDS",
      "outputs": [
        {
          "internalType": "uint32",
          "name": "",
          "type": "uint32"
        }
      ],
      "stateMutability": "view",
      "type": "function"
    },
    {
      "inputs": [],
      "name": "REQUEST_CONFIRMATIONS",
      "outputs": [
        {
          "internalType": "uint16",
          "name": "",
          "type": "uint16"
        }
      ],
      "stateMutability": "view",
      "type": "function"
    },
    {
      "inputs": [
        {
          "internalType": "address",
          "name": "to",
          "type": "address"
        },
        {
          "internalType": "uint256",
          "name": "tokenId",
          "type": "uint256"
        }
      ],
      "name": "approve",
      "outputs": [],
      "stateMutability": "nonpayable",
      "type": "function"
    },
    {
      "inputs": [
        {
          "internalType": "address",
          "name": "owner",
          "type": "address"
        }
      ],
      "name": "balanceOf",
      "outputs": [
        {
          "internalType": "uint256",
          "name": "",
          "type": "uint256"
        }
      ],
      "stateMutability": "view",
      "type": "function"
    },
    {
      "inputs": [
        {
          "internalType": "uint256",
          "name": "tokenId",
          "type": "uint256"
        }
      ],
      "name": "getApproved",
      "outputs": [
        {
          "internalType": "address",
          "name": "",
          "type": "address"
        }
      ],
      "stateMutability": "view",
      "type": "function"
    },
    {
      "inputs": [
        {
          "internalType": "uint256",
          "name": "moddedRng",
          "type": "uint256"
        }
      ],
      "name": "getBreedFromModdedRng",
      "outputs": [
        {
          "internalType": "uint256",
          "name": "",
          "type": "uint256"
        }
      ],
      "stateMutability": "pure",
      "type": "function"
    },
    {
      "inputs": [],
      "name": "getChanceArray",
      "outputs": [
        {
          "internalType": "uint256[3]",
          "name": "",
          "type": "uint256[3]"
        }
      ],
      "stateMutability": "pure",
      "type": "function"
    },
    {
      "inputs": [],
      "name": "i_callbackGasLimit",
      "outputs": [
        {
          "internalType": "uint32",
          "name": "",
          "type": "uint32"
        }
      ],
      "stateMutability": "view",
      "type": "function"
    },
    {
      "inputs": [],
      "name": "i_gasLane",
      "outputs": [
        {
          "internalType": "bytes32",
          "name": "",
          "type": "bytes32"
        }
      ],
      "stateMutability": "view",
      "type": "function"
    },
    {
      "inputs": [],
      "name": "i_subscriptionId",
      "outputs": [
        {
          "internalType": "uint64",
          "name": "",
          "type": "uint64"
        }
      ],
      "stateMutability": "view",
      "type": "function"
    },
    {
      "inputs": [
        {
          "internalType": "address",
          "name": "owner",
          "type": "address"
        },
        {
          "internalType": "address",
          "name": "operator",
          "type": "address"
        }
      ],
      "name": "isApprovedForAll",
      "outputs": [
        {
          "internalType": "bool",
          "name": "",
          "type": "bool"
        }
      ],
      "stateMutability": "view",
      "type": "function"
    },
    {
      "inputs": [],
      "name": "name",
      "outputs": [
        {
          "internalType": "string",
          "name": "",
          "type": "string"
        }
      ],
      "stateMutability": "view",
      "type": "function"
    },
    {
      "inputs": [
        {
          "internalType": "uint256",
          "name": "tokenId",
          "type": "uint256"
        }
      ],
      "name": "ownerOf",
      "outputs": [
        {
          "internalType": "address",
          "name": "",
          "type": "address"
        }
      ],
      "stateMutability": "view",
      "type": "function"
    },
    {
      "inputs": [
        {
          "internalType": "uint256",
          "name": "requestId",
          "type": "uint256"
        },
        {
          "internalType": "uint256[]",
          "name": "randomWords",
          "type": "uint256[]"
        }
      ],
      "name": "rawFulfillRandomWords",
      "outputs": [],
      "stateMutability": "nonpayable",
      "type": "function"
    },
    {
      "inputs": [],
      "name": "requestDoggie",
      "outputs": [
        {
          "internalType": "uint256",
          "name": "requestId",
          "type": "uint256"
        }
      ],
      "stateMutability": "nonpayable",
      "type": "function"
    },
    {
      "inputs": [
        {
          "internalType": "uint256",
          "name": "",
          "type": "uint256"
        }
      ],
      "name": "s_dogTokenUris",
      "outputs": [
        {
          "internalType": "string",
          "name": "",
          "type": "string"
        }
      ],
      "stateMutability": "view",
      "type": "function"
    },
    {
      "inputs": [
        {
          "internalType": "uint256",
          "name": "",
          "type": "uint256"
        }
      ],
      "name": "s_requestIdToSender",
      "outputs": [
        {
          "internalType": "address",
          "name": "",
          "type": "address"
        }
      ],
      "stateMutability": "view",
      "type": "function"
    },
    {
      "inputs": [],
      "name": "s_tokenCounter",
      "outputs": [
        {
          "internalType": "uint256",
          "name": "",
          "type": "uint256"
        }
      ],
      "stateMutability": "view",
      "type": "function"
    },
    {
      "inputs": [
        {
          "internalType": "address",
          "name": "from",
          "type": "address"
        },
        {
          "internalType": "address",
          "name": "to",
          "type": "address"
        },
        {
          "internalType": "uint256",
          "name": "tokenId",
          "type": "uint256"
        }
      ],
      "name": "safeTransferFrom",
      "outputs": [],
      "stateMutability": "nonpayable",
      "type": "function"
    },
    {
      "inputs": [
        {
          "internalType": "address",
          "name": "from",
          "type": "address"
        },
        {
          "internalType": "address",
          "name": "to",
          "type": "address"
        },
        {
          "internalType": "uint256",
          "name": "tokenId",
          "type": "uint256"
        },
        {
          "internalType": "bytes",
          "name": "_data",
          "type": "bytes"
        }
      ],
      "name": "safeTransferFrom",
      "outputs": [],
      "stateMutability": "nonpayable",
      "type": "function"
    },
    {
      "inputs": [
        {
          "internalType": "address",
          "name": "operator",
          "type": "address"
        },
        {
          "internalType": "bool",
          "name": "approved",
          "type": "bool"
        }
      ],
      "name": "setApprovalForAll",
      "outputs": [],
      "stateMutability": "nonpayable",
      "type": "function"
    },
    {
      "inputs": [
        {
          "internalType": "bytes4",
          "name": "interfaceId",
          "type": "bytes4"
        }
      ],
      "name": "supportsInterface",
      "outputs": [
        {
          "internalType": "bool",
          "name": "",
          "type": "bool"
        }
      ],
      "stateMutability": "view",
      "type": "function"
    },
    {
      "inputs": [],
      "name": "symbol",
      "outputs": [
        {
          "internalType": "string",
          "name": "",
          "type": "string"
        }
      ],
      "stateMutability": "view",
      "type": "function"
    },
    {
      "inputs": [
        {
          "internalType": "uint256",
          "name": "tokenId",
          "type": "uint256"
        }
      ],
      "name": "tokenURI",
      "outputs": [
        {
          "internalType": "string",
          "name": "",
          "type": "string"
        }
      ],
      "stateMutability": "view",
      "type": "function"
    },
    {
      "inputs": [
        {
          "internalType": "address",
          "name": "from",
          "type": "address"
        },
        {
          "internalType": "address",
          "name": "to",
          "type": "address"
        },
        {
          "internalType": "uint256",
          "name": "tokenId",
          "type": "uint256"
        }
      ],
      "name": "transferFrom",
      "outputs": [],
      "stateMutability": "nonpayable",
      "type": "function"
    }
  ],
  "transactionHash": "0xcf9cab6b3707c7a58d4211980cc35c671f5d6eb5443522860df6d037f29b4d5f",
  "args": [
    "0x6168499c0cFfCaCD319c818142124B7A15E857ab",
    "0xd89b2bf150e3b9e13446986e571fb9cab24b13cea0a43ea20a6049a85cc807cc",
    "3587",
    "500000",
    [
      "ipfs://QmaVkBn2tKmjbhphU7eyztbvSQU5EXDdqRyXZtRhSGgJGo",
      "ipfs://QmZYmH5iDbD6v3U2ixoVAjioSzvWJszDzYdbeCLquGSpVm",
      "ipfs://QmYQC5aGZu2PTH8XzbJrbDnvhj3gVs7ya33H9mqUNvST3d"
    ]
  ],
  "numDeployments": 2,
  "solcInputHash": "25b131e1726b83011df71b60017cd95e",
  "bytecode": "0x6101206040523480156200001257600080fd5b5060405162003ebd38038062003ebd8339818101604052810190620000389190620004c3565b846040518060400160405280600f81526020017f52616e646f6d2049504653204e465400000000000000000000000000000000008152506040518060400160405280600381526020017f52494e00000000000000000000000000000000000000000000000000000000008152508160009080519060200190620000bd929190620001ae565b508060019080519060200190620000d6929190620001ae565b5050508073ffffffffffffffffffffffffffffffffffffffff1660808173ffffffffffffffffffffffffffffffffffffffff1660601b81525050508473ffffffffffffffffffffffffffffffffffffffff1660a08173ffffffffffffffffffffffffffffffffffffffff1660601b815250508360c081815250508267ffffffffffffffff1660e08167ffffffffffffffff1660c01b815250508163ffffffff166101008163ffffffff1660e01b815250506000600b81905550806008906003620001a29291906200023f565b505050505050620007e6565b828054620001bc906200068a565b90600052602060002090601f016020900481019282620001e057600085556200022c565b82601f10620001fb57805160ff19168380011785556200022c565b828001600101855582156200022c579182015b828111156200022b5782518255916020019190600101906200020e565b5b5090506200023b919062000299565b5090565b826003810192821562000286579160200282015b828111156200028557825182908051906020019062000274929190620001ae565b509160200191906001019062000253565b5b509050620002959190620002b8565b5090565b5b80821115620002b45760008160009055506001016200029a565b5090565b5b80821115620002dc5760008181620002d29190620002e0565b50600101620002b9565b5090565b508054620002ee906200068a565b6000825580601f1062000302575062000323565b601f01602090049060005260206000209081019062000322919062000299565b5b50565b60006200033d620003378462000593565b6200056a565b905080828560208602820111156200035a576200035962000759565b5b60005b85811015620003af57815167ffffffffffffffff81111562000384576200038362000754565b5b80860162000393898262000462565b855260208501945060208401935050506001810190506200035d565b5050509392505050565b6000620003d0620003ca84620005bc565b6200056a565b905082815260208101848484011115620003ef57620003ee6200075e565b5b620003fc84828562000654565b509392505050565b60008151905062000415816200077e565b92915050565b600082601f83011262000433576200043262000754565b5b60036200044284828562000326565b91505092915050565b6000815190506200045c8162000798565b92915050565b600082601f8301126200047a576200047962000754565b5b81516200048c848260208601620003b9565b91505092915050565b600081519050620004a681620007b2565b92915050565b600081519050620004bd81620007cc565b92915050565b600080600080600060a08688031215620004e257620004e162000768565b5b6000620004f28882890162000404565b955050602062000505888289016200044b565b94505060406200051888828901620004ac565b93505060606200052b8882890162000495565b925050608086015167ffffffffffffffff8111156200054f576200054e62000763565b5b6200055d888289016200041b565b9150509295509295909350565b60006200057662000589565b9050620005848282620006c0565b919050565b6000604051905090565b600067ffffffffffffffff821115620005b157620005b062000725565b5b602082029050919050565b600067ffffffffffffffff821115620005da57620005d962000725565b5b620005e5826200076d565b9050602081019050919050565b6000620005ff8262000610565b9050919050565b6000819050919050565b600073ffffffffffffffffffffffffffffffffffffffff82169050919050565b600063ffffffff82169050919050565b600067ffffffffffffffff82169050919050565b60005b838110156200067457808201518184015260208101905062000657565b8381111562000684576000848401525b50505050565b60006002820490506001821680620006a357607f821691505b60208210811415620006ba57620006b9620006f6565b5b50919050565b620006cb826200076d565b810181811067ffffffffffffffff82111715620006ed57620006ec62000725565b5b80604052505050565b7f4e487b7100000000000000000000000000000000000000000000000000000000600052602260045260246000fd5b7f4e487b7100000000000000000000000000000000000000000000000000000000600052604160045260246000fd5b600080fd5b600080fd5b600080fd5b600080fd5b600080fd5b6000601f19601f8301169050919050565b6200078981620005f2565b81146200079557600080fd5b50565b620007a38162000606565b8114620007af57600080fd5b50565b620007bd8162000630565b8114620007c957600080fd5b50565b620007d78162000640565b8114620007e357600080fd5b50565b60805160601c60a05160601c60c05160e05160c01c6101005160e01c61366a62000853600039600081816108d001526110b50152600081816108ad0152610afc01526000818161088c0152610cbf015260006108500152600081816109bc0152610a10015261366a6000f3fe608060405234801561001057600080fd5b506004361061018e5760003560e01c806370a08231116100de578063a51cccf311610097578063c87b56dd11610071578063c87b56dd14610499578063d757d027146104c9578063da1b9e29146104e7578063e985e9c5146105055761018e565b8063a51cccf31461041d578063b88d4fde1461044d578063c42b65e2146104695761018e565b806370a082311461034757806372cf6e34146103775780638e879c8a1461039557806395d89b41146103b3578063a22cb465146103d1578063a36f573b146103ed5761018e565b80631fe543e31161014b578063470cdf9711610125578063470cdf97146102bd5780635dacf5f4146102db5780636352211e146102f957806367f082b0146103295761018e565b80631fe543e31461026957806323b872dd1461028557806342842e0e146102a15761018e565b806301ffc9a71461019357806306fdde03146101c3578063081812fc146101e1578063095ea7b3146102115780630b21a83b1461022d5780631801cc8a1461024b575b600080fd5b6101ad60048036038101906101a89190612419565b610535565b6040516101ba91906129b2565b60405180910390f35b6101cb610617565b6040516101d89190612a3b565b60405180910390f35b6101fb60048036038101906101f69190612473565b6106a9565b6040516102089190612907565b60405180910390f35b61022b600480360381019061022691906123d9565b61072e565b005b610235610846565b6040516102429190612c78565b60405180910390f35b61025361084c565b6040516102609190612c78565b60405180910390f35b610283600480360381019061027e91906124cd565b6109ba565b005b61029f600480360381019061029a91906122c3565b610a7a565b005b6102bb60048036038101906102b691906122c3565b610ada565b005b6102c5610afa565b6040516102d29190612cae565b60405180910390f35b6102e3610b1e565b6040516102f09190612997565b60405180910390f35b610313600480360381019061030e9190612473565b610b49565b6040516103209190612907565b60405180910390f35b610331610bfb565b60405161033e9190612c5d565b60405180910390f35b610361600480360381019061035c9190612256565b610c00565b60405161036e9190612c78565b60405180910390f35b61037f610cb8565b60405161038c9190612c93565b60405180910390f35b61039d610cbd565b6040516103aa91906129cd565b60405180910390f35b6103bb610ce1565b6040516103c89190612a3b565b60405180910390f35b6103eb60048036038101906103e69190612399565b610d73565b005b61040760048036038101906104029190612473565b610d89565b6040516104149190612907565b60405180910390f35b61043760048036038101906104329190612473565b610dbc565b6040516104449190612c78565b60405180910390f35b61046760048036038101906104629190612316565b610e5c565b005b610483600480360381019061047e9190612473565b610ebe565b6040516104909190612a3b565b60405180910390f35b6104b360048036038101906104ae9190612473565b610f61565b6040516104c09190612a3b565b60405180910390f35b6104d16110b3565b6040516104de9190612c93565b60405180910390f35b6104ef6110d7565b6040516104fc9190612c78565b60405180910390f35b61051f600480360381019061051a9190612283565b6110dc565b60405161052c91906129b2565b60405180910390f35b60007f80ac58cd000000000000000000000000000000000000000000000000000000007bffffffffffffffffffffffffffffffffffffffffffffffffffffffff1916827bffffffffffffffffffffffffffffffffffffffffffffffffffffffff1916148061060057507f5b5e139f000000000000000000000000000000000000000000000000000000007bffffffffffffffffffffffffffffffffffffffffffffffffffffffff1916827bffffffffffffffffffffffffffffffffffffffffffffffffffffffff1916145b80610610575061060f82611170565b5b9050919050565b60606000805461062690612f68565b80601f016020809104026020016040519081016040528092919081815260200182805461065290612f68565b801561069f5780601f106106745761010080835404028352916020019161069f565b820191906000526020600020905b81548152906001019060200180831161068257829003601f168201915b5050505050905090565b60006106b4826111da565b6106f3576040517f08c379a00000000000000000000000000000000000000000000000000000000081526004016106ea90612bdd565b60405180910390fd5b6004600083815260200190815260200160002060009054906101000a900473ffffffffffffffffffffffffffffffffffffffff169050919050565b600061073982610b49565b90508073ffffffffffffffffffffffffffffffffffffffff168373ffffffffffffffffffffffffffffffffffffffff1614156107aa576040517f08c379a00000000000000000000000000000000000000000000000000000000081526004016107a190612c1d565b60405180910390fd5b8073ffffffffffffffffffffffffffffffffffffffff166107c9611246565b73ffffffffffffffffffffffffffffffffffffffff1614806107f857506107f7816107f2611246565b6110dc565b5b610837576040517f08c379a000000000000000000000000000000000000000000000000000000000815260040161082e90612b1d565b60405180910390fd5b610841838361124e565b505050565b600b5481565b60007f000000000000000000000000000000000000000000000000000000000000000073ffffffffffffffffffffffffffffffffffffffff16635d3b1d307f00000000000000000000000000000000000000000000000000000000000000007f000000000000000000000000000000000000000000000000000000000000000060037f000000000000000000000000000000000000000000000000000000000000000060016040518663ffffffff1660e01b81526004016109119594939291906129e8565b602060405180830381600087803b15801561092b57600080fd5b505af115801561093f573d6000803e3d6000fd5b505050506040513d601f19601f8201168201806040525081019061096391906124a0565b9050336007600083815260200190815260200160002060006101000a81548173ffffffffffffffffffffffffffffffffffffffff021916908373ffffffffffffffffffffffffffffffffffffffff16021790555090565b7f000000000000000000000000000000000000000000000000000000000000000073ffffffffffffffffffffffffffffffffffffffff163373ffffffffffffffffffffffffffffffffffffffff1614610a6c57337f00000000000000000000000000000000000000000000000000000000000000006040517f1cf993f4000000000000000000000000000000000000000000000000000000008152600401610a63929190612922565b60405180910390fd5b610a768282611307565b5050565b610a8b610a85611246565b8261144d565b610aca576040517f08c379a0000000000000000000000000000000000000000000000000000000008152600401610ac190612c3d565b60405180910390fd5b610ad583838361152b565b505050565b610af583838360405180602001604052806000815250610e5c565b505050565b7f000000000000000000000000000000000000000000000000000000000000000081565b610b26612005565b6040518060600160405280600a8152602001601e81526020016064815250905090565b6000806002600084815260200190815260200160002060009054906101000a900473ffffffffffffffffffffffffffffffffffffffff169050600073ffffffffffffffffffffffffffffffffffffffff168173ffffffffffffffffffffffffffffffffffffffff161415610bf2576040517f08c379a0000000000000000000000000000000000000000000000000000000008152600401610be990612b5d565b60405180910390fd5b80915050919050565b600381565b60008073ffffffffffffffffffffffffffffffffffffffff168273ffffffffffffffffffffffffffffffffffffffff161415610c71576040517f08c379a0000000000000000000000000000000000000000000000000000000008152600401610c6890612b3d565b60405180910390fd5b600360008373ffffffffffffffffffffffffffffffffffffffff1673ffffffffffffffffffffffffffffffffffffffff168152602001908152602001600020549050919050565b600181565b7f000000000000000000000000000000000000000000000000000000000000000081565b606060018054610cf090612f68565b80601f0160208091040260200160405190810160405280929190818152602001828054610d1c90612f68565b8015610d695780601f10610d3e57610100808354040283529160200191610d69565b820191906000526020600020905b815481529060010190602001808311610d4c57829003601f168201915b5050505050905090565b610d85610d7e611246565b8383611792565b5050565b60076020528060005260406000206000915054906101000a900473ffffffffffffffffffffffffffffffffffffffff1681565b600080600090506000610dcd610b1e565b905060005b6003811015610e53578285118015610e0b5750818160038110610df857610df76130d2565b5b602002015183610e089190612dbb565b85105b15610e1b57809350505050610e57565b818160038110610e2e57610e2d6130d2565b5b602002015183610e3e9190612dbb565b92508080610e4b90612fcb565b915050610dd2565b5050505b919050565b610e6d610e67611246565b8361144d565b610eac576040517f08c379a0000000000000000000000000000000000000000000000000000000008152600401610ea390612c3d565b60405180910390fd5b610eb8848484846118ff565b50505050565b60088160038110610ece57600080fd5b016000915090508054610ee090612f68565b80601f0160208091040260200160405190810160405280929190818152602001828054610f0c90612f68565b8015610f595780601f10610f2e57610100808354040283529160200191610f59565b820191906000526020600020905b815481529060010190602001808311610f3c57829003601f168201915b505050505081565b6060610f6c826111da565b610fab576040517f08c379a0000000000000000000000000000000000000000000000000000000008152600401610fa290612bbd565b60405180910390fd5b6000600660008481526020019081526020016000208054610fcb90612f68565b80601f0160208091040260200160405190810160405280929190818152602001828054610ff790612f68565b80156110445780601f1061101957610100808354040283529160200191611044565b820191906000526020600020905b81548152906001019060200180831161102757829003601f168201915b50505050509050600061105561195b565b905060008151141561106b5781925050506110ae565b6000825111156110a05780826040516020016110889291906128e3565b604051602081830303815290604052925050506110ae565b6110a984611972565b925050505b919050565b7f000000000000000000000000000000000000000000000000000000000000000081565b606481565b6000600560008473ffffffffffffffffffffffffffffffffffffffff1673ffffffffffffffffffffffffffffffffffffffff16815260200190815260200160002060008373ffffffffffffffffffffffffffffffffffffffff1673ffffffffffffffffffffffffffffffffffffffff16815260200190815260200160002060009054906101000a900460ff16905092915050565b60007f01ffc9a7000000000000000000000000000000000000000000000000000000007bffffffffffffffffffffffffffffffffffffffffffffffffffffffff1916827bffffffffffffffffffffffffffffffffffffffffffffffffffffffff1916149050919050565b60008073ffffffffffffffffffffffffffffffffffffffff166002600084815260200190815260200160002060009054906101000a900473ffffffffffffffffffffffffffffffffffffffff1673ffffffffffffffffffffffffffffffffffffffff1614159050919050565b600033905090565b816004600083815260200190815260200160002060006101000a81548173ffffffffffffffffffffffffffffffffffffffff021916908373ffffffffffffffffffffffffffffffffffffffff160217905550808273ffffffffffffffffffffffffffffffffffffffff166112c183610b49565b73ffffffffffffffffffffffffffffffffffffffff167f8c5be1e5ebec7d5bd14f71427d1e84f3dd0314c0f7b2291e5b200ac8c7c3b92560405160405180910390a45050565b60006007600084815260200190815260200160002060009054906101000a900473ffffffffffffffffffffffffffffffffffffffff1690506000600b5490506001600b546113559190612dbb565b600b819055506000606484600081518110611373576113726130d2565b5b60200260200101516113859190613014565b9050600061139282610dbc565b905061139e8484611a19565b61144583600883600381106113b6576113b56130d2565b5b0180546113c290612f68565b80601f01602080910402602001604051908101604052809291908181526020018280546113ee90612f68565b801561143b5780601f106114105761010080835404028352916020019161143b565b820191906000526020600020905b81548152906001019060200180831161141e57829003601f168201915b5050505050611a37565b505050505050565b6000611458826111da565b611497576040517f08c379a000000000000000000000000000000000000000000000000000000000815260040161148e90612afd565b60405180910390fd5b60006114a283610b49565b90508073ffffffffffffffffffffffffffffffffffffffff168473ffffffffffffffffffffffffffffffffffffffff1614806114e457506114e381856110dc565b5b8061152257508373ffffffffffffffffffffffffffffffffffffffff1661150a846106a9565b73ffffffffffffffffffffffffffffffffffffffff16145b91505092915050565b8273ffffffffffffffffffffffffffffffffffffffff1661154b82610b49565b73ffffffffffffffffffffffffffffffffffffffff16146115a1576040517f08c379a000000000000000000000000000000000000000000000000000000000815260040161159890612a7d565b60405180910390fd5b600073ffffffffffffffffffffffffffffffffffffffff168273ffffffffffffffffffffffffffffffffffffffff161415611611576040517f08c379a000000000000000000000000000000000000000000000000000000000815260040161160890612abd565b60405180910390fd5b61161c838383611aab565b61162760008261124e565b6001600360008573ffffffffffffffffffffffffffffffffffffffff1673ffffffffffffffffffffffffffffffffffffffff16815260200190815260200160002060008282546116779190612e42565b925050819055506001600360008473ffffffffffffffffffffffffffffffffffffffff1673ffffffffffffffffffffffffffffffffffffffff16815260200190815260200160002060008282546116ce9190612dbb565b92505081905550816002600083815260200190815260200160002060006101000a81548173ffffffffffffffffffffffffffffffffffffffff021916908373ffffffffffffffffffffffffffffffffffffffff160217905550808273ffffffffffffffffffffffffffffffffffffffff168473ffffffffffffffffffffffffffffffffffffffff167fddf252ad1be2c89b69c2b068fc378daa952ba7f163c4a11628f55a4df523b3ef60405160405180910390a461178d838383611ab0565b505050565b8173ffffffffffffffffffffffffffffffffffffffff168373ffffffffffffffffffffffffffffffffffffffff161415611801576040517f08c379a00000000000000000000000000000000000000000000000000000000081526004016117f890612add565b60405180910390fd5b80600560008573ffffffffffffffffffffffffffffffffffffffff1673ffffffffffffffffffffffffffffffffffffffff16815260200190815260200160002060008473ffffffffffffffffffffffffffffffffffffffff1673ffffffffffffffffffffffffffffffffffffffff16815260200190815260200160002060006101000a81548160ff0219169083151502179055508173ffffffffffffffffffffffffffffffffffffffff168373ffffffffffffffffffffffffffffffffffffffff167f17307eab39ab6107e8899845ad3d59bd9653f200f220920489ca2b5937696c31836040516118f291906129b2565b60405180910390a3505050565b61190a84848461152b565b61191684848484611ab5565b611955576040517f08c379a000000000000000000000000000000000000000000000000000000000815260040161194c90612a5d565b60405180910390fd5b50505050565b606060405180602001604052806000815250905090565b606061197d826111da565b6119bc576040517f08c379a00000000000000000000000000000000000000000000000000000000081526004016119b390612bfd565b60405180910390fd5b60006119c661195b565b905060008151116119e65760405180602001604052806000815250611a11565b806119f084611c4c565b604051602001611a019291906128e3565b6040516020818303038152906040525b915050919050565b611a33828260405180602001604052806000815250611dad565b5050565b611a40826111da565b611a7f576040517f08c379a0000000000000000000000000000000000000000000000000000000008152600401611a7690612b7d565b60405180910390fd5b80600660008481526020019081526020016000209080519060200190611aa6929190612027565b505050565b505050565b505050565b6000611ad68473ffffffffffffffffffffffffffffffffffffffff16611e08565b15611c3f578373ffffffffffffffffffffffffffffffffffffffff1663150b7a02611aff611246565b8786866040518563ffffffff1660e01b8152600401611b21949392919061294b565b602060405180830381600087803b158015611b3b57600080fd5b505af1925050508015611b6c57506040513d601f19601f82011682018060405250810190611b699190612446565b60015b611bef573d8060008114611b9c576040519150601f19603f3d011682016040523d82523d6000602084013e611ba1565b606091505b50600081511415611be7576040517f08c379a0000000000000000000000000000000000000000000000000000000008152600401611bde90612a5d565b60405180910390fd5b805181602001fd5b63150b7a0260e01b7bffffffffffffffffffffffffffffffffffffffffffffffffffffffff1916817bffffffffffffffffffffffffffffffffffffffffffffffffffffffff191614915050611c44565b600190505b949350505050565b60606000821415611c94576040518060400160405280600181526020017f30000000000000000000000000000000000000000000000000000000000000008152509050611da8565b600082905060005b60008214611cc6578080611caf90612fcb565b915050600a82611cbf9190612e11565b9150611c9c565b60008167ffffffffffffffff811115611ce257611ce1613101565b5b6040519080825280601f01601f191660200182016040528015611d145781602001600182028036833780820191505090505b5090505b60008514611da157600182611d2d9190612e42565b9150600a85611d3c9190613014565b6030611d489190612dbb565b60f81b818381518110611d5e57611d5d6130d2565b5b60200101907effffffffffffffffffffffffffffffffffffffffffffffffffffffffffffff1916908160001a905350600a85611d9a9190612e11565b9450611d18565b8093505050505b919050565b611db78383611e2b565b611dc46000848484611ab5565b611e03576040517f08c379a0000000000000000000000000000000000000000000000000000000008152600401611dfa90612a5d565b60405180910390fd5b505050565b6000808273ffffffffffffffffffffffffffffffffffffffff163b119050919050565b600073ffffffffffffffffffffffffffffffffffffffff168273ffffffffffffffffffffffffffffffffffffffff161415611e9b576040517f08c379a0000000000000000000000000000000000000000000000000000000008152600401611e9290612b9d565b60405180910390fd5b611ea4816111da565b15611ee4576040517f08c379a0000000000000000000000000000000000000000000000000000000008152600401611edb90612a9d565b60405180910390fd5b611ef060008383611aab565b6001600360008473ffffffffffffffffffffffffffffffffffffffff1673ffffffffffffffffffffffffffffffffffffffff1681526020019081526020016000206000828254611f409190612dbb565b92505081905550816002600083815260200190815260200160002060006101000a81548173ffffffffffffffffffffffffffffffffffffffff021916908373ffffffffffffffffffffffffffffffffffffffff160217905550808273ffffffffffffffffffffffffffffffffffffffff16600073ffffffffffffffffffffffffffffffffffffffff167fddf252ad1be2c89b69c2b068fc378daa952ba7f163c4a11628f55a4df523b3ef60405160405180910390a461200160008383611ab0565b5050565b6040518060600160405280600390602082028036833780820191505090505090565b82805461203390612f68565b90600052602060002090601f016020900481019282612055576000855561209c565b82601f1061206e57805160ff191683800117855561209c565b8280016001018555821561209c579182015b8281111561209b578251825591602001919060010190612080565b5b5090506120a991906120ad565b5090565b5b808211156120c65760008160009055506001016120ae565b5090565b60006120dd6120d884612cee565b612cc9565b90508083825260208201905082856020860282011115612100576120ff613135565b5b60005b858110156121305781612116888261222c565b845260208401935060208301925050600181019050612103565b5050509392505050565b600061214d61214884612d1a565b612cc9565b9050828152602081018484840111156121695761216861313a565b5b612174848285612f26565b509392505050565b60008135905061218b816135d8565b92915050565b600082601f8301126121a6576121a5613130565b5b81356121b68482602086016120ca565b91505092915050565b6000813590506121ce816135ef565b92915050565b6000813590506121e381613606565b92915050565b6000815190506121f881613606565b92915050565b600082601f83011261221357612212613130565b5b813561222384826020860161213a565b91505092915050565b60008135905061223b8161361d565b92915050565b6000815190506122508161361d565b92915050565b60006020828403121561226c5761226b613144565b5b600061227a8482850161217c565b91505092915050565b6000806040838503121561229a57612299613144565b5b60006122a88582860161217c565b92505060206122b98582860161217c565b9150509250929050565b6000806000606084860312156122dc576122db613144565b5b60006122ea8682870161217c565b93505060206122fb8682870161217c565b925050604061230c8682870161222c565b9150509250925092565b600080600080608085870312156123305761232f613144565b5b600061233e8782880161217c565b945050602061234f8782880161217c565b93505060406123608782880161222c565b925050606085013567ffffffffffffffff8111156123815761238061313f565b5b61238d878288016121fe565b91505092959194509250565b600080604083850312156123b0576123af613144565b5b60006123be8582860161217c565b92505060206123cf858286016121bf565b9150509250929050565b600080604083850312156123f0576123ef613144565b5b60006123fe8582860161217c565b925050602061240f8582860161222c565b9150509250929050565b60006020828403121561242f5761242e613144565b5b600061243d848285016121d4565b91505092915050565b60006020828403121561245c5761245b613144565b5b600061246a848285016121e9565b91505092915050565b60006020828403121561248957612488613144565b5b60006124978482850161222c565b91505092915050565b6000602082840312156124b6576124b5613144565b5b60006124c484828501612241565b91505092915050565b600080604083850312156124e4576124e3613144565b5b60006124f28582860161222c565b925050602083013567ffffffffffffffff8111156125135761251261313f565b5b61251f85828601612191565b9150509250929050565b600061253583836128a7565b60208301905092915050565b61254a81612e76565b82525050565b61255981612d55565b6125638184612d83565b925061256e82612d4b565b8060005b8381101561259f5781516125868782612529565b965061259183612d76565b925050600181019050612572565b505050505050565b6125b081612e88565b82525050565b6125bf81612e94565b82525050565b60006125d082612d60565b6125da8185612d8e565b93506125ea818560208601612f35565b6125f381613149565b840191505092915050565b600061260982612d6b565b6126138185612d9f565b9350612623818560208601612f35565b61262c81613149565b840191505092915050565b600061264282612d6b565b61264c8185612db0565b935061265c818560208601612f35565b80840191505092915050565b6000612675603283612d9f565b91506126808261315a565b604082019050919050565b6000612698602583612d9f565b91506126a3826131a9565b604082019050919050565b60006126bb601c83612d9f565b91506126c6826131f8565b602082019050919050565b60006126de602483612d9f565b91506126e982613221565b604082019050919050565b6000612701601983612d9f565b915061270c82613270565b602082019050919050565b6000612724602c83612d9f565b915061272f82613299565b604082019050919050565b6000612747603883612d9f565b9150612752826132e8565b604082019050919050565b600061276a602a83612d9f565b915061277582613337565b604082019050919050565b600061278d602983612d9f565b915061279882613386565b604082019050919050565b60006127b0602e83612d9f565b91506127bb826133d5565b604082019050919050565b60006127d3602083612d9f565b91506127de82613424565b602082019050919050565b60006127f6603183612d9f565b91506128018261344d565b604082019050919050565b6000612819602c83612d9f565b91506128248261349c565b604082019050919050565b600061283c602f83612d9f565b9150612847826134eb565b604082019050919050565b600061285f602183612d9f565b915061286a8261353a565b604082019050919050565b6000612882603183612d9f565b915061288d82613589565b604082019050919050565b6128a181612eca565b82525050565b6128b081612ef8565b82525050565b6128bf81612ef8565b82525050565b6128ce81612f02565b82525050565b6128dd81612f12565b82525050565b60006128ef8285612637565b91506128fb8284612637565b91508190509392505050565b600060208201905061291c6000830184612541565b92915050565b60006040820190506129376000830185612541565b6129446020830184612541565b9392505050565b60006080820190506129606000830187612541565b61296d6020830186612541565b61297a60408301856128b6565b818103606083015261298c81846125c5565b905095945050505050565b60006060820190506129ac6000830184612550565b92915050565b60006020820190506129c760008301846125a7565b92915050565b60006020820190506129e260008301846125b6565b92915050565b600060a0820190506129fd60008301886125b6565b612a0a60208301876128d4565b612a176040830186612898565b612a2460608301856128c5565b612a3160808301846128c5565b9695505050505050565b60006020820190508181036000830152612a5581846125fe565b905092915050565b60006020820190508181036000830152612a7681612668565b9050919050565b60006020820190508181036000830152612a968161268b565b9050919050565b60006020820190508181036000830152612ab6816126ae565b9050919050565b60006020820190508181036000830152612ad6816126d1565b9050919050565b60006020820190508181036000830152612af6816126f4565b9050919050565b60006020820190508181036000830152612b1681612717565b9050919050565b60006020820190508181036000830152612b368161273a565b9050919050565b60006020820190508181036000830152612b568161275d565b9050919050565b60006020820190508181036000830152612b7681612780565b9050919050565b60006020820190508181036000830152612b96816127a3565b9050919050565b60006020820190508181036000830152612bb6816127c6565b9050919050565b60006020820190508181036000830152612bd6816127e9565b9050919050565b60006020820190508181036000830152612bf68161280c565b9050919050565b60006020820190508181036000830152612c168161282f565b9050919050565b60006020820190508181036000830152612c3681612852565b9050919050565b60006020820190508181036000830152612c5681612875565b9050919050565b6000602082019050612c726000830184612898565b92915050565b6000602082019050612c8d60008301846128b6565b92915050565b6000602082019050612ca860008301846128c5565b92915050565b6000602082019050612cc360008301846128d4565b92915050565b6000612cd3612ce4565b9050612cdf8282612f9a565b919050565b6000604051905090565b600067ffffffffffffffff821115612d0957612d08613101565b5b602082029050602081019050919050565b600067ffffffffffffffff821115612d3557612d34613101565b5b612d3e82613149565b9050602081019050919050565b6000819050919050565b600060039050919050565b600081519050919050565b600081519050919050565b6000602082019050919050565b600081905092915050565b600082825260208201905092915050565b600082825260208201905092915050565b600081905092915050565b6000612dc682612ef8565b9150612dd183612ef8565b9250827fffffffffffffffffffffffffffffffffffffffffffffffffffffffffffffffff03821115612e0657612e05613045565b5b828201905092915050565b6000612e1c82612ef8565b9150612e2783612ef8565b925082612e3757612e36613074565b5b828204905092915050565b6000612e4d82612ef8565b9150612e5883612ef8565b925082821015612e6b57612e6a613045565b5b828203905092915050565b6000612e8182612ed8565b9050919050565b60008115159050919050565b6000819050919050565b60007fffffffff0000000000000000000000000000000000000000000000000000000082169050919050565b600061ffff82169050919050565b600073ffffffffffffffffffffffffffffffffffffffff82169050919050565b6000819050919050565b600063ffffffff82169050919050565b600067ffffffffffffffff82169050919050565b82818337600083830152505050565b60005b83811015612f53578082015181840152602081019050612f38565b83811115612f62576000848401525b50505050565b60006002820490506001821680612f8057607f821691505b60208210811415612f9457612f936130a3565b5b50919050565b612fa382613149565b810181811067ffffffffffffffff82111715612fc257612fc1613101565b5b80604052505050565b6000612fd682612ef8565b91507fffffffffffffffffffffffffffffffffffffffffffffffffffffffffffffffff82141561300957613008613045565b5b600182019050919050565b600061301f82612ef8565b915061302a83612ef8565b92508261303a57613039613074565b5b828206905092915050565b7f4e487b7100000000000000000000000000000000000000000000000000000000600052601160045260246000fd5b7f4e487b7100000000000000000000000000000000000000000000000000000000600052601260045260246000fd5b7f4e487b7100000000000000000000000000000000000000000000000000000000600052602260045260246000fd5b7f4e487b7100000000000000000000000000000000000000000000000000000000600052603260045260246000fd5b7f4e487b7100000000000000000000000000000000000000000000000000000000600052604160045260246000fd5b600080fd5b600080fd5b600080fd5b600080fd5b600080fd5b6000601f19601f8301169050919050565b7f4552433732313a207472616e7366657220746f206e6f6e20455243373231526560008201527f63656976657220696d706c656d656e7465720000000000000000000000000000602082015250565b7f4552433732313a207472616e736665722066726f6d20696e636f72726563742060008201527f6f776e6572000000000000000000000000000000000000000000000000000000602082015250565b7f4552433732313a20746f6b656e20616c7265616479206d696e74656400000000600082015250565b7f4552433732313a207472616e7366657220746f20746865207a65726f2061646460008201527f7265737300000000000000000000000000000000000000000000000000000000602082015250565b7f4552433732313a20617070726f766520746f2063616c6c657200000000000000600082015250565b7f4552433732313a206f70657261746f7220717565727920666f72206e6f6e657860008201527f697374656e7420746f6b656e0000000000000000000000000000000000000000602082015250565b7f4552433732313a20617070726f76652063616c6c6572206973206e6f74206f7760008201527f6e6572206e6f7220617070726f76656420666f7220616c6c0000000000000000602082015250565b7f4552433732313a2062616c616e636520717565727920666f7220746865207a6560008201527f726f206164647265737300000000000000000000000000000000000000000000602082015250565b7f4552433732313a206f776e657220717565727920666f72206e6f6e657869737460008201527f656e7420746f6b656e0000000000000000000000000000000000000000000000602082015250565b7f45524337323155524953746f726167653a2055524920736574206f66206e6f6e60008201527f6578697374656e7420746f6b656e000000000000000000000000000000000000602082015250565b7f4552433732313a206d696e7420746f20746865207a65726f2061646472657373600082015250565b7f45524337323155524953746f726167653a2055524920717565727920666f722060008201527f6e6f6e6578697374656e7420746f6b656e000000000000000000000000000000602082015250565b7f4552433732313a20617070726f76656420717565727920666f72206e6f6e657860008201527f697374656e7420746f6b656e0000000000000000000000000000000000000000602082015250565b7f4552433732314d657461646174613a2055524920717565727920666f72206e6f60008201527f6e6578697374656e7420746f6b656e0000000000000000000000000000000000602082015250565b7f4552433732313a20617070726f76616c20746f2063757272656e74206f776e6560008201527f7200000000000000000000000000000000000000000000000000000000000000602082015250565b7f4552433732313a207472616e736665722063616c6c6572206973206e6f74206f60008201527f776e6572206e6f7220617070726f766564000000000000000000000000000000602082015250565b6135e181612e76565b81146135ec57600080fd5b50565b6135f881612e88565b811461360357600080fd5b50565b61360f81612e9e565b811461361a57600080fd5b50565b61362681612ef8565b811461363157600080fd5b5056fea2646970667358221220a86d6e37b1e2769134b64648ace02139f78f328874d23e0c7ee5e122158ef28e64736f6c63430008070033",
  "devdoc": {
    "kind": "dev",
    "methods": {
      "approve(address,uint256)": {
        "details": "See {IERC721-approve}."
      },
      "balanceOf(address)": {
        "details": "See {IERC721-balanceOf}."
      },
      "constructor": {
        "details": " - We are going to use VRFrequestRandomWords() function from Chainlink VRF so we need to define each parameter that function uses in our contract constructor"
      },
      "getApproved(uint256)": {
        "details": "See {IERC721-getApproved}."
      },
      "getBreedFromModdedRng(uint256)": {
        "details": " - 0-9: st.bernard - 10-29: pug - 30 - 99: shiba "
      },
      "isApprovedForAll(address,address)": {
        "details": "See {IERC721-isApprovedForAll}."
      },
      "name()": {
        "details": "See {IERC721Metadata-name}."
      },
      "ownerOf(uint256)": {
        "details": "See {IERC721-ownerOf}."
      },
      "safeTransferFrom(address,address,uint256)": {
        "details": "See {IERC721-safeTransferFrom}."
      },
      "safeTransferFrom(address,address,uint256,bytes)": {
        "details": "See {IERC721-safeTransferFrom}."
      },
      "setApprovalForAll(address,bool)": {
        "details": "See {IERC721-setApprovalForAll}."
      },
      "supportsInterface(bytes4)": {
        "details": "See {IERC165-supportsInterface}."
      },
      "symbol()": {
        "details": "See {IERC721Metadata-symbol}."
      },
      "tokenURI(uint256)": {
        "details": "See {IERC721Metadata-tokenURI}."
      },
      "transferFrom(address,address,uint256)": {
        "details": "See {IERC721-transferFrom}."
      }
    },
    "version": 1
  },
  "userdoc": {
    "kind": "user",
    "methods": {
      "getBreedFromModdedRng(uint256)": {
        "notice": "Function to decide puppy breed randomly"
      },
      "requestDoggie()": {
        "notice": "Mint a random puppy (get random number) -> use Chainlink VRF -> call requestRandomWords() function"
      }
    },
    "version": 1
  },
  "storageLayout": {
    "storage": [
      {
        "astId": 172,
        "contract": "contracts/RandomIpfsNft.sol:RandomIpfsNft",
        "label": "_name",
        "offset": 0,
        "slot": "0",
        "type": "t_string_storage"
      },
      {
        "astId": 174,
        "contract": "contracts/RandomIpfsNft.sol:RandomIpfsNft",
        "label": "_symbol",
        "offset": 0,
        "slot": "1",
        "type": "t_string_storage"
      },
      {
        "astId": 178,
        "contract": "contracts/RandomIpfsNft.sol:RandomIpfsNft",
        "label": "_owners",
        "offset": 0,
        "slot": "2",
        "type": "t_mapping(t_uint256,t_address)"
      },
      {
        "astId": 182,
        "contract": "contracts/RandomIpfsNft.sol:RandomIpfsNft",
        "label": "_balances",
        "offset": 0,
        "slot": "3",
        "type": "t_mapping(t_address,t_uint256)"
      },
      {
        "astId": 186,
        "contract": "contracts/RandomIpfsNft.sol:RandomIpfsNft",
        "label": "_tokenApprovals",
        "offset": 0,
        "slot": "4",
        "type": "t_mapping(t_uint256,t_address)"
      },
      {
        "astId": 192,
        "contract": "contracts/RandomIpfsNft.sol:RandomIpfsNft",
        "label": "_operatorApprovals",
        "offset": 0,
        "slot": "5",
        "type": "t_mapping(t_address,t_mapping(t_address,t_bool))"
      },
      {
        "astId": 1159,
        "contract": "contracts/RandomIpfsNft.sol:RandomIpfsNft",
        "label": "_tokenURIs",
        "offset": 0,
        "slot": "6",
        "type": "t_mapping(t_uint256,t_string_storage)"
      },
      {
        "astId": 1888,
        "contract": "contracts/RandomIpfsNft.sol:RandomIpfsNft",
        "label": "s_requestIdToSender",
        "offset": 0,
        "slot": "7",
        "type": "t_mapping(t_uint256,t_address)"
      },
      {
        "astId": 1892,
        "contract": "contracts/RandomIpfsNft.sol:RandomIpfsNft",
        "label": "s_dogTokenUris",
        "offset": 0,
        "slot": "8",
        "type": "t_array(t_string_storage)3_storage"
      },
      {
        "astId": 1894,
        "contract": "contracts/RandomIpfsNft.sol:RandomIpfsNft",
        "label": "s_tokenCounter",
        "offset": 0,
        "slot": "11",
        "type": "t_uint256"
      }
    ],
    "types": {
      "t_address": {
        "encoding": "inplace",
        "label": "address",
        "numberOfBytes": "20"
      },
      "t_array(t_string_storage)3_storage": {
        "base": "t_string_storage",
        "encoding": "inplace",
        "label": "string[3]",
        "numberOfBytes": "96"
      },
      "t_bool": {
        "encoding": "inplace",
        "label": "bool",
        "numberOfBytes": "1"
      },
      "t_mapping(t_address,t_bool)": {
        "encoding": "mapping",
        "key": "t_address",
        "label": "mapping(address => bool)",
        "numberOfBytes": "32",
        "value": "t_bool"
      },
      "t_mapping(t_address,t_mapping(t_address,t_bool))": {
        "encoding": "mapping",
        "key": "t_address",
        "label": "mapping(address => mapping(address => bool))",
        "numberOfBytes": "32",
        "value": "t_mapping(t_address,t_bool)"
      },
      "t_mapping(t_address,t_uint256)": {
        "encoding": "mapping",
        "key": "t_address",
        "label": "mapping(address => uint256)",
        "numberOfBytes": "32",
        "value": "t_uint256"
      },
      "t_mapping(t_uint256,t_address)": {
        "encoding": "mapping",
        "key": "t_uint256",
        "label": "mapping(uint256 => address)",
        "numberOfBytes": "32",
        "value": "t_address"
      },
      "t_mapping(t_uint256,t_string_storage)": {
        "encoding": "mapping",
        "key": "t_uint256",
        "label": "mapping(uint256 => string)",
        "numberOfBytes": "32",
        "value": "t_string_storage"
      },
      "t_string_storage": {
        "encoding": "bytes",
        "label": "string",
        "numberOfBytes": "32"
      },
      "t_uint256": {
        "encoding": "inplace",
        "label": "uint256",
        "numberOfBytes": "32"
      }
    }
  }
}